:100000000C9435000C945D000C945D000C945D0024
:100010000C945D000C945D000C945D000C945D00EC
:100020000C945D000C945D000C945D000C945D00DC
:100030000C945D000C945D000C945D000C945D00CC
:100040000C94DF030C945D000C945D000C945D0037
:100050000C945D000C945D000C945D000C945D00AC
:100060000C9464020C945D00B00111241FBECFEF0C
:10007000D8E0DEBFCDBF18E0A0E0B1E0E4E9F9E0F0
:1000800002C005900D92A633B107D9F718E0A6E398
:10009000B8E001C01D92A23DB107E1F710E0CAE649
:1000A000D0E004C02297FE010E94C404C836D107E4
:1000B000C9F70E94BB040C94C8040C940000FF9282
:1000C0000F931F93F82E0CE518E0C8016CE370E065
:1000D0000E94A601C80160E470E00E94D501C80139
:1000E0006F2D0E94B101C8010E94D8011F910F918C
:1000F000FF9008950F931F93CF93DF938C011EC041
:10010000C0E0D0E0D801EC91F0E0B09783E0EE0FD2
:10011000FF1F8A95E1F7EC0FFD1FE050FF4F808134
:100120000E945F006AE070E080E090E00E94270497
:100130002196C830D10531F70F5F1F4FF80180813C
:100140008823F1F6DF91CF911F910F910895FF92CF
:100150000F931F93F82E0CE518E0C8016CE370E0D4
:100160000E94A601C80160E870E00E94D501C801A4
:100170006F2D0E94B101C8010E94D8011F910F91FB
:10018000FF9008958EEA0E94A70062E370E080E08D
:1001900090E00E9427048FEA0E94A70062E370E0CB
:1001A00080E090E00E94270408950F931F93062F8C
:1001B00080550E94A70010E043E0000F111F4A95F0
:1001C000E1F7802F8F700E94A70034E01595079506
:1001D0003A95E1F70F70802F805F0E94A7001F9172
:1001E0000F9108950F931F9300E0802F60E00E940D
:1001F000D50010E080E00E945F001F5F1038D1F74B
:100200000F5F083091F71F910F910895CF93DF93FF
:100210000E94F20062E370E080E090E00E94270418
:1002200080E20E94A70082E00E94A70086EA0E9466
:10023000A70082E063E00E94D50080E098E00E9481
:100240007A0083E063E00E94D5008CE098E00E9491
:100250007A0084E063E00E94D50088E198E00E9483
:100260007A0085E063E00E94D50089E298E00E9470
:100270007A0060ED77E080E090E00E94270487EA52
:100280000E94A70060ED77E080E090E00E942704E4
:100290000E94F20062E370E080E090E00E94270498
:1002A00086EA0E94A7008EEA0E94A70080E20E94D0
:1002B000A70080E00E94A700C0E0D4E089910E94DE
:1002C0005F0088E0C030D807C9F78FEA0E94A70016
:1002D00060ED77E080E090E00E94270487EA0E94CA
:1002E000A70060ED77E080E090E00E94270489E2BB
:1002F0000E94A70080E00E94A70080E00E94A70063
:1003000080E00E94A70087E00E94A70081E00E9491
:10031000A7008FE20E94A70068EB7BE080E090E0FE
:10032000E4CF8CE598E00E94E8010E94C2006AE0F8
:1003300070E080E090E00E9427040E94F20062E3F7
:1003400070E080E090E00E942704089581E08093AF
:100350005B08609338081092590810925A08089563
:100360000895DF93CF930F92CDB7DEB76983809165
:100370005B08882389F080915A08803290F480913C
:100380005908E82FF0E0E75CF74F60838F5F8093B8
:10039000590880935A0805C0CE01019661E00E9479
:1003A00049020F90CF91DF9108950E94B101089505
:1003B0008091380869E378E040915A0821E00E9472
:1003C00006021092590810925A0810925B0808957C
:1003D00010923608109237081092590810925A0855
:1003E0000E94F301089510925D08449A459AE9EB42
:1003F000F0E080818E7F808380818D7F808388E4A0
:100400008093B80085E48093BC0008951F93582F13
:10041000122F413210F081E03AC080915D088823AC
:10042000E1F782E080935D088FEF8093C808109217
:10043000830840938408A3E6B8E0FB0102C08191E1
:100440008D938E2F861B8417D0F3852F90E0880F15
:10045000991F80935E0885EE8093BC00112321F0E4
:1004600080915D088230E1F38091C8088F3F11F4DC
:1004700080E00DC08091C808803211F482E007C08E
:100480008091C808803311F084E001C083E01F919F
:100490000895482F613210F081E0089580915D0841
:1004A000843011F082E008956093A608A5E8B8E0D2
:1004B000842F9C01F90102C081918D938E2F841BA2
:1004C0008617D0F380E008951F920F920FB60F9217
:1004D00011242F933F934F935F936F937F938F9349
:1004E0009F93AF93BF93EF93FF938091B90090E0F8
:1004F000887F90708036910509F4DCC081369105C3
:10050000CCF58832910509F47BC089329105B4F4A9
:100510008031910509F46FC0813191053CF4009759
:1005200009F431C1089709F039C165C088319105D6
:1005300009F466C0809709F031C17DC0803491050F
:1005400009F49FC08134910544F48033910509F486
:100550007DC0C89709F022C184C08035910509F497
:1005600084C08835910509F491C08834910509F05B
:1005700015C198C08839910509F4FDC089399105E4
:10058000ECF48837910509F495C0893791054CF44E
:100590008836910509F48EC08037910509F0FEC0B8
:1005A00089C08838910509F4E6C08039910509F4BD
:1005B00087C08038910509F0F1C082C0803B910569
:1005C00009F4B0C0813B91054CF4803A910509F4DF
:1005D00089C0883A910509F0E1C0A4C0803C91052A
:1005E00009F4CDC0883C910509F4C9C0883B910548
:1005F00009F0D4C0ACC080915E088093BB00B9C044
:100600009091830880918408981768F490918308EA
:10061000E92FF0E0ED59F74F80818093BB009F5F99
:1006200090938308A6C085ED8093BC008091BC00A8
:1006300084FDFCCFB1C080E28093C80885ED809333
:10064000BC008091BC0084FDFCCFA6C080E38093F9
:10065000C80885ED8093BC008091BC0084FDFCCF70
:100660009BC088E38093C8088AC0809183089091DA
:10067000BB00E82FF0E0ED59F74F90838F5F809338
:100680008308909183088091840871C080918308C9
:100690009091BB00E82FF0E0ED59F74F90838F5F0A
:1006A0008093830885ED8093BC008091BC0084FD1D
:1006B000FCCF72C083E080935D081092C70859C0D8
:1006C0008091C708803208F056C08091C708909189
:1006D000BB00E82FF0E0E955F74F90838F5F8093E0
:1006E000C70847C08091C708803230F4E091C7083E
:1006F000F0E0E955F74F108285ED8093BC008091C2
:10070000BC0084FDFCCF10925D086091C708E091A9
:100710006108F091620887EA98E070E0099510920C
:10072000C7082DC084E080935D081092A508109240
:10073000A608E0915F08F091600809958091A608ED
:10074000882329F481E08093A6081092850890916F
:10075000A508E92FF0E0EB57F74F80818093BB00AD
:100760009F5F9093A5089091A5088091A60898177F
:1007700010F485EC01C085E88093BC000FC085ECC7
:100780008093BC0009C01092C80885ED8093BC001E
:100790008091BC0084FDFCCF10925D08FF91EF9129
:1007A000BF91AF919F918F917F916F915F914F9189
:1007B0003F912F910F900FBE0F901F9018951F9291
:1007C0000F920FB60F9211242F933F938F939F9305
:1007D000AF93BF938091CD089091CE08A091CF08A0
:1007E000B091D0083091D1080196A11DB11D232FE1
:1007F0002D5F2D3720F02D570196A11DB11D20939F
:10080000D1088093CD089093CE08A093CF08B093E1
:10081000D0088091C9089091CA08A091CB08B091E6
:10082000CC080196A11DB11D8093C9089093CA08F8
:10083000A093CB08B093CC08BF91AF919F918F91BB
:100840003F912F910F900FBE0F901F9018959B0115
:10085000AC017FB7F8948091C9089091CA08A09123
:10086000CB08B091CC0866B5A89B05C06F3F19F0C6
:100870000196A11DB11D7FBFBA2FA92F982F8827E0
:10088000860F911DA11DB11D62E0880F991FAA1F3F
:10089000BB1F6A95D1F7BC012DC0FFB7F8948091BA
:1008A000C9089091CA08A091CB08B091CC08E6B5D0
:1008B000A89B05C0EF3F19F00196A11DB11DFFBF18
:1008C000BA2FA92F982F88278E0F911DA11DB11D1A
:1008D000E2E0880F991FAA1FBB1FEA95D1F7861B7C
:1008E000970B885E9340C8F2215030404040504002
:1008F00068517C4F211531054105510571F6089568
:10090000789484B5826084BD84B5816084BD85B5EA
:10091000826085BD85B5816085BDEEE6F0E08081B1
:1009200081608083E1E8F0E01082808182608083D2
:10093000808181608083E0E8F0E080818160808355
:10094000E1EBF0E0808184608083E0EBF0E0808187
:1009500081608083EAE7F0E0808184608083808129
:1009600082608083808181608083808180688083D1
:100970001092C10008950E9480040E9491010E947B
:100980000601FDCFEE0FFF1F0590F491E02D0994B5
:04099000F894FFCF09
:10099400000000000000000000005F0000000000F4
:1009A400000007000700000000147F147F140000FB
:1009B40000242A7F2A120000002313086462000026
:1009C40000364955225000000000050300000000D5
:1009D400001C2241000000000041221C0000000015
:1009E40000082A1C2A0800000008083E0808000025
:1009F40000A06000000000000008080808080000CB
:100A040000606000000000000020100804020000E4
:100A1400003E5149453E00000000427F4000000076
:100A2400006251494946000000224149493600000C
:100A3400001814127F1000000027454545390000B6
:100A4400003C4A49493000000001710905030000D7
:100A5400003649494936000000064949291E00006C
:100A640000003636000000000000AC6C00000000FE
:100A7400000814224100000000141414141400008F
:100A84000041221408000000000201510906000080
:100A940000324979413E0000007E0909097E0000C8
:100AA400007F494949360000003E4141412200008F
:100AB400007F4141221C0000007F49494941000058
:100AC400007F090909010000003E41415172000004
:100AD400007F0808087F000000417F4100000000FB
:100AE400002040413F010000007F08142241000023
:100AF400007F404040400000007F020C027F000065
:100B0400007F0408107F0000003E4141413E000088
:100B1400007F090909060000003E4151215E0000E2
:100B2400007F09192946000000264949493200007E
:100B34000001017F01010000003F4040403F0000F0
:100B4400001F2040201F0000003F4038403F0000AD
:100B54000063140814630000000304780403000015
:100B64000061514945430000007F414100000000FD
:100B740000020408102000000041417F0000000032
:100B840000040201020400000080808080800000D4
:100B940000010204000000000020545454780000B6
:100BA400007F4844443800000038444428000000D2
:100BB40000384444487F000000385454541800005E
:100BC40000087E09020000000018A4A4A47C000010
:100BD400007F08040478000000007D00000000008D
:100BE4000080847D00000000007F10284400000085
:100BF40000417F4000000000007C041804780000DD
:100C0400007C08047C0000000038444438000000E4
:100C140000FC24241800000000182424FC00000018
:100C240000007C0804000000004854542400000024
:100C340000047F4400000000003C40407C000000B1
:100C4400001C2040201C0000003C4030403C0000C0
:100C54000044281028440000001CA0A07C000000D0
:100C6400004464544C440000000836410000000075
:100C740000007F0000000000004136080000000072
:100C8400000201010201000000020505020000004B
:100C94000000C0E070303010303070E0C060606040
:100CA4006060606060606060606060606060606040
:100CB4006060E0E0C0800000000000000000000070
:100CC400C0C08000000000000000000080C0C0C060
:100CD4008000000000000000000080C0C00000C0D0
:100CE400C0C00000000000C0C0C0C0C0C0C0C0C0C0
:100CF400C0C0C08080000000000000000000C0C030
:100D0400C0C0C0C0C0C0C0C0C0C0C0C0C0C000005F
:100D14000000FFDE706060406060703E6F78FCF839
:100D2400F0F0F0E0C0C0808000000000000000008F
:100D34000000000103FFFF000000000000000000AD
:100D4400077FFFF8800000000000C0F8FF0F030FCA
:100D5400FFFCE00000000000C0F0FF3F0B0000FFBC
:100D6400FFFF0000000000FFFFFF0101010101017E
:100D740001010103070F3FFEF8F000000000FFFF30
:100D8400FF81818181818181818181818101000053
:100D94000000FFFF0000000000E03E0B80C0603058
:100DA400D9731303078F8F9F1F3FFEFCFCF8F000DD
:100DB4000000000000FFFF00000000000000000031
:100DC4000000033FFFF88000F0FF3F070000000031
:100DD40000077FFFF000C0FCFF1F0300000000FFBE
:100DE400FFFF0000000000FFFFFF00000000000004
:100DF400000000000080E0FF7F7F00000000FFFF94
:100E0400FF030303030303030303030303000000BB
:100E14000000FFFF000000000E0F0603010040FC6D
:100E24006730188CC6F3F0F8783C3E3D3F3D3D3CBE
:100E340078F8F0F0E0BFFF000000000000000000C0
:100E440000000000010F1F1F0F83808000000000BE
:100E5400000000031F1F1F07000000000000001F08
:100E64001F1F80800000001F1F1F1C1C1C1C1C1C3B
:100E74001C9C9E0E0F0703010000000000001F1FB2
:100E84001F1C1C1C1C1C1C1C1C1C1C1C1C1C1C00B7
:100E94000000FFFF00000000000000000000000050
:100EA4000000FEFFFFFF0100000000000000000042
:100EB400000001FFFFFFFE00000000000000000032
:100EC400000000000000C0F83E0F010F3EF8C00013
:100ED400000000F8F83018181800C0F0301818187E
:100EE4001830FFFF0000F8F80000000000F8F800D8
:100EF40000F9F9000000F8F83018181838F0E0008C
:100F040000C0E070381818183870E0C00000000005
:100F140000000F1F3C78707060606060606060600B
:100F2400606060636F6F5F7E3C7878787078787803
:100F34003C3E1F1F0F0301000000000000000000E2
:100F440000000060781F0703030303030303071F64
:100F54007860007F7F00000000001F3F3060606009
:100F640060307F7F00001F3F70606060307F7F00D3
:100F7400007F7F0000007F7F00000000007F7F0073
:100F8400000F1F387060606070381F0F0000000091
:100F9400FEFEFEFEFEFEFEFEFEFEFEFEFEFEFEFE6D
:100FA400FEFEFEFEFEFEFEFEFEFEFEFEFEFEFEFE5D
:100FB400FEFEFEFEFEFEFEFEFEFEFEFEFEFEFEFE4D
:100FC400FEFEFEFEFEFEFEFEFEFEFEFEFEFEFEFE3D
:100FD400FEFEFEFEFEFEFEFEFEFEFEFEFEFEFEFE2D
:100FE400FEFEFEFEFEFEFEFEFEFEFEFEFEFEFEFE1D
:100FF400FEFEFEFEFEFEFEFEFEFEFEFEFEFEFEFE0D
:10100400FEFEFEFEFEFEFEFEFEFEFEFEFEFEFEFEFC
:1010140000000000000000000000000000000000CC
:1010240000000000000000000000000000000000BC
:1010340000000000000000000000000000000000AC
:10104400000000000000000000000000000000009C
:10105400000000000000000000000000000000008C
:10106400000000000000000000000000000000007C
:10107400000000000000000000000000000000006C
:10108400000000000000000000000000000000005C
:101094005757572E574944452E484B004F4C45440B
:1010A400203132382A363400303132333435363751
:1010B40038394142434445460041726475696E6F54
:0610C40020333238000069
:00000001FF
